:0B017C000A010C442020CCCCCCCC5855
:10014700AE071FEE6013E4FCFDC3ED9450EC940082
:0901570050EE0DBD00010C80F01A
:01016000227C
:10000300E4F508F509F50AF50BD2B3C2B7D2B2D2BB
:1000130093D295C296C2971200EA754401754501C1
:10002300120187120071C2B4C2B57FF4120147D224
:10003300B4D2B512016120B008C2B475440175236E
:100043000120B108C2B5754501752301E523B4014B
:1000530015120187120071120161E4F5237FF41276
:0E0063000147D2B4D2B530B2CD1200B080C881
:1000EA00C2B3E4FF12010FE4F50C90017CE493FF24
:1000FA00E50CC39F500CE50CA393FF12010F050CEE
:04010A0080E8D2B304
:01010E0022CE
:10010F008F20E4FF300704D2908002C290D2B7E56F
:0B011F002025E0F520C2B70FBF08E963
:01012A0022B2
:10012B00E4FFE52025E0F520D2B7309104D2008022
:0B013B0002C200C2B70FBF08E9AF20EE
:010146002296
:10007100C2B37F2012010FE4FE74442EF8E6FF1292
:10008100010F0EBE20F3D2B37F01120147C2B37F2D
:100091002212010FE4FEEE90018293FF12010F0E76
:0E00A100BE04F3D2B3D2967F01120147C2967D
:0100AF00222E
:1000B000C296C2B37F2412010FE4FE12012B7424F6
:1000C0002EF8A6070EBE20F3D2B320B2FD2093FA7D
:1000D000D296E524B40102C2B4E525B40102C2B54A
:0900E0007FF4120147D2B4D2B53D
:0100E90022F4
:09018700D297C2967F01020147E4
:060161007544FF7545FF27
:09016700C297D2967F0102014704
:030000000201708A
:0C017000787FE4F6D8FD7581640200037E
:00000001FF
